:100000006AC08EC0A8C18CC08BC006C489C088C01D
:1000100087C086C085C084C084C082C081C000C241
:100020000100010005000500030000E100000100DF
:100030000F000F000D0000960000020019001A00CA
:100040001700127A00000700200021001D008070B8
:1000500000000B00230023002000004B00001400D0
:10006000370037003400403800001E004B004B00C2
:100070004800802500003200720072007000C0123B
:1000800000006E00E900E900E60060090000E500FC
:10009000D801D801D501B0040000D301B403B403E2
:1000A000B1032C0100006707DD0EDD0EDA0E000043
:1000B000000037000000000038000000000036009B
:1000C00002020202020201020408102001020000E2
:1000D0000000BC00B60011241FBECFE5D2E0DEBF99
:1000E000CDBF10E0A0E6B0E0E6E6FCE002C005907F
:1000F0000D92A439B107D9F710E0A4E9B0E001C02E
:100100001D92AE3FB107E1F710E0C4EDD0E003C0AF
:100110002297FE0198D5C23DD107D1F7D5D497C516
:100120006FCF1F920F920FB60F9211248F9381E021
:100130008093B0008F910F900FBE0F901F90189575
:100140008130910551F46F5F7F4F79F484E990E03D
:1001500060E043E020E034D30895892B31F46F5FF1
:100160007F4F19F484E990E01FD1089580E090E07A
:100170006FEF7FEFE5DF089581E090E06FEF7FEFB5
:10018000DFDF08956FE070E080E090E099D380E0D9
:1001900060E032D481E061E02FD485B7877E806152
:1001A00085BF85B7806285BF889585B78F7D85BF00
:1001B000089581E060E020D480E061E01DD46FE02C
:1001C00070E080E090E07CD30895F3DF8091B00090
:1001D000882381F084E990E060E670E0E6D484E969
:1001E00090E06AE3A6D484E990E069E670E0DFD4A9
:1001F0001092B00082E034D4019771F484E990E069
:1002000060E670E0D2D484E990E06AE392D484E9B5
:1002100090E065E770E0CBD484E022D4019771F4DC
:1002200084E990E060E670E0C0D484E990E06AE39D
:1002300080D484E990E06BE770E0B9D4A3DF08953F
:1002400081B5816681BD8BB780628BBFAA9AAC9A5B
:100250003798479A84B38F6384BB84E990E040E881
:1002600055E260E070E0B4D080E061E09FD382E0CE
:1002700060E09CD381E061E099D384E060E096D3B4
:1002800008950F931F93CF93DF93FC01738D7695A1
:100290007170A685B7859585772329F08C91892380
:1002A00009F454C004C08C91892309F04FC083899C
:1002B000948920E001972FEF8F3F9207D9F7C589E6
:1002C000D689A685B785158560E031E040E050E02D
:1002D00000E0CE01202F01972FEF8F3F9207D9F733
:1002E0008C91812311F0632B03C0832F80956823A9
:1002F000330F4F5F5F4F4830510559F78789908D15
:1003000020E001972FEF8F3F9207D9F77111609589
:100310008091F3002091F40090E001968F7390702B
:1003200030E08217930779F0E091F300F0E0ED54AC
:10033000FF4F60838091F30090E001968F7390707F
:100340008093F30003C0838D8160838FDF91CF9111
:100350001F910F9108951F920F920FB60F921124C3
:100360002F933F934F935F936F937F938F939F93BD
:10037000AF93BF93EF93FF938091B1009091B20040
:10038000009709F07EDFFF91EF91BF91AF919F91B0
:100390008F917F916F915F914F913F912F910F902E
:1003A0000FBE0F901F901895FC0187E890E0918395
:1003B00080833485353058F425B381E090E002C065
:1003C000880F991F3A95E2F78095822385BB08959F
:1003D000CF92DF92EF92FF920F931F93CF93DF9311
:1003E000EC016A017B011A8E198E188E1F8A1E8AF3
:1003F0001D8A1C8A1B8A20E030E0C9016CE070E095
:10040000E7D38C01FC01E25EFF4F85919591A591A8
:10041000B4918C159D05AE05BF0529F5C90163E0B2
:1004200070E0D6D3FC01EE0FFF1FEE0FFF1FEE5D55
:10043000FF4F859194919C8B8B8BF801EC5DFF4F66
:10044000859194919E8B8D8BF801EA5DFF4F85918C
:100450009491988F8F8BF801E85DFF4F859194916F
:100460009A8F898F06C02F5F3F4F2C30310509F0DE
:10047000C4CF8F89988D892BC1F03C85353068F4C5
:100480008BB780628BBF25B381E090E002C0880FFC
:10049000991F3A95E2F7282B25BB898D9A8D20E08C
:1004A00001972FEF8F3F9207D9F78091B10090917C
:1004B000B2008C179D0781F08B8D8E7F8B8F9FB73D
:1004C000F8941092F3008091F3008093F400D0939D
:1004D000B200C093B1009FBFDF91CF911F910F91E8
:1004E000FF90EF90DF90CF9008952091B100309170
:1004F000B2002817390731F49091F4008091F3008D
:10050000981719F42FEF3FEF0FC0E091F400F0E0DF
:10051000ED54FF4F20818091F40090E001968F739D
:1005200090708093F40030E0C90108952091B100EB
:100530003091B2002817390719F020E030E00DC0E3
:100540008091F3002091F40090E0805C9F4F821B2B
:10055000910960E470E04ED39C01C90108950F93A6
:100560001F93DC0159968D919C915A97892B49F4E0
:1005700081E090E013969C938E93129720E030E0F8
:1005800097C00FB7F8945B968C915B975196ED915D
:10059000FC91529750962C91509781FF8DC080818D
:1005A000822B808359968D919C915A97049620E0D6
:1005B00001972FEF8F3F9207D9F75B968C915B974E
:1005C00081FF35C031E040E050E070E010E0832F63
:1005D00090E0862397235196ED91FC915297509687
:1005E0002C915097892B29F08081209528232083F6
:1005F00003C08081822B808359968D919C915A975C
:10060000212F01972FEF8F3F9207D9F7330F4F5FBD
:100610005F4F48305105D9F65196ED91FC915297B4
:10062000908150968C9150978095892333C031E00A
:1006300040E050E070E010E0832F90E086239723A5
:100640005196ED91FC91529750962C915097892B91
:1006500021F08081822B808304C080812095282313
:10066000208359968D919C915A97212F01972FEFB6
:100670008F3F9207D9F7330F4F5F5F4F48305105D7
:10068000D9F65196ED91FC915297808150969C91AC
:100690005097892B80830FBF59968D919C915A97C3
:1006A00020E001972FEF8F3F9207D9F721E030E04C
:1006B000C9011F910F9108958081209528232083DF
:1006C00071CF2091B1003091B2002817390749F459
:1006D0009FB7F8941092F3008091F3008093F40098
:1006E0009FBF08952091B1003091B20028173907BB
:1006F00031F49091F4008091F300981719F42FEFE2
:100700003FEF0AC0E091F400F0E0ED54FF4F80812C
:10071000282F332727FD3095C90108951F93CF93C4
:10072000DF93EC01162F862F60E040D18B8D81FD89
:1007300003C0812F61E060D11C87212F30E0C90107
:100740008A539F4FFC0184918D8720543F4FF901BC
:100750006491E62FF0E0EE0FFF1FE654FF4F859106
:1007600094919F878E87DF91CF911F910895FF927B
:100770000F931F938C01F62E862F61E017D18F2DDA
:1007800061E03AD18F2D90E0FC01EA53FF4FE491F4
:10079000D8015096EC93509780549F4FFC01649180
:1007A000E62FF0E0EE0FFF1FEC54FF4F8591949180
:1007B00052969C938E9351971F910F91FF9008959D
:1007C000FF920F931F938C01F62EFC01138212826D
:1007D00088EE93E0A0E0B0E084839583A683B7839E
:1007E00087E890E091838083148A138A168A158A99
:1007F000108E178A128E118E838D2170220F8C7F9E
:10080000822B838FC801642FB2DFC8016F2D86DF72
:100810001F910F91FF9008951F920F920FB60F92A4
:1008200011242F933F934F935F936F937F938F93F5
:100830009F93AF93BF932091F9003091FA004091BC
:10084000FB005091FC007091FD00DA01C901029695
:10085000A11DB11D672F6A5F6D3730F06D57DA014A
:10086000C9010396A11DB11D6093FD008093F9009D
:100870009093FA00A093FB00B093FC008091F500E8
:100880009091F600A091F700B091F8000196A11D9B
:10089000B11D8093F5009093F600A093F700B093FC
:1008A000F800BF91AF919F918F917F916F915F9170
:1008B0004F913F912F910F900FBE0F901F90189561
:1008C0009B01AC017FB7F8948091F5009091F60000
:1008D000A091F700B091F80062B708B601FE05C01C
:1008E0006F3F19F00196A11DB11D7FBFBA2FA92F2F
:1008F000982F8827860F911DA11DB11D63E0880FD9
:10090000991FAA1FBB1F6A95D1F7BC012EC0FFB764
:10091000F8948091F5009091F600A091F700B091C5
:10092000F800E2B708B601FE05C0EF3F19F00196E6
:10093000A11DB11DFFBFBA2FA92F982F88278E0F99
:10094000911DA11DB11DE3E0880F991FAA1FBB1FB8
:10095000EA95D1F7861B970B885E9340C0F2215031
:1009600030404040504068517C4F211531054105D1
:10097000510569F6089578948AB582608ABD8AB572
:1009800081608ABD83B7826083BF83B7816083BF84
:1009900089B7826089BF80B7826080BF80B781607D
:1009A00080BF329A319A309A379A0895482F50E092
:1009B000CA018A539F4FFC01249140545F4FFA01B2
:1009C00084918823C1F0E82FF0E0EE0FFF1FE2557D
:1009D000FF4FA591B491662341F49FB7F8948C9191
:1009E000209582238C939FBF08959FB7F8948C9194
:1009F000822B8C939FBF0895482F50E0CA018453E7
:100A00009F4FFC012491CA018A539F4FFC0194918E
:100A100040545F4FFA013491332309F1222359F0F6
:100A2000213019F0223039F403C08AB58F7702C023
:100A30008AB58F7D8ABDE32FF0E0EE0FFF1FEC54E7
:100A4000FF4FA591B4912FB7F894662321F48C91B0
:100A50009095892302C08C91892B8C932FBF089588
:100A6000682F70E0CB0184539F4FFC012491CB0190
:100A70008A539F4FFC01449160547F4FFB01949136
:100A8000992319F420E030E01DC0222359F02130D1
:100A900019F0223039F403C08AB58F7702C08AB5C5
:100AA0008F7D8ABD892F90E0880F991F86549F4FB4
:100AB000FC01A591B4918C9120E030E0842311F0E9
:100AC00021E030E0C9010895CF93DF9354DFB8DB14
:100AD000C0E0D0E07ADB2097E9F392DAFBCFCF9247
:100AE000DF92EF92FF920F931F93CF93DF937C01DE
:100AF0006B018A01C0E0D0E00FC0D6016D916D019D
:100B0000D701ED91FC910190F081E02DC70109958D
:100B1000C80FD91F015010400115110571F7CE0102
:100B2000DF91CF911F910F91FF90EF90DF90CF90C9
:100B30000895DC01ED91FC910190F081E02D099583
:100B40000895EF92FF920F931F938C01DC01ED91BA
:100B5000FC910190F081E02D6DE009957C01D801B8
:100B6000ED91FC910190F081E02DC8016AE00995BA
:100B70009C012E0D3F1DC9011F910F91FF90EF9019
:100B80000895CF93DF93DB010D900020E9F71197D3
:100B9000A61BB70BEC01E881F9810280F381E02DFF
:100BA000AD010995DF91CF910895EBDF0895EF92A4
:100BB000FF920F931F937C01E4DF8C01C701C1DF1B
:100BC000080F191FC8011F910F91FF90EF90089512
:100BD0005527002480FF02C0060E571F660F771F9F
:100BE0006115710521F096958795009799F7952FD6
:100BF000802D089597FB092E07260AD077FD04D093
:100C00000CD006D000201AF4709561957F4F08959E
:100C1000F6F7909581959F4F0895AA1BBB1B51E154
:100C200007C0AA1FBB1FA617B70710F0A61BB70B5C
:100C3000881F991F5A95A9F780959095BC01CD0101
:100C40000895EE0FFF1F0590F491E02D099410E038
:100C5000C4EDD0E003C0FE01F6DF2296C63DD10709
:060C6000D1F7F894FFCF6C
:100C66004445434146424144005354494C4C5F413C
:100C76004C49564500414C41524D00434849505F4E
:100C86004F4B0000000000AF026F0596027502721E
:040C960003610300F3
:00000001FF
